:1009E800454E5445522050494E204E554D42455291
:1009F8000050494E20434F525245435400444F4FF4
:100A080052204F50454E45440057524F4E472050B4
:030A1800494E0044
:080ABE00060D3132333435001E
:10099A007F0F120AA27F38120AA27F01120AA2E46A
:1009AA00F518F5197F80120AA27BFF7A0979E812F5
:1009BA000A1B120A7E7FC0120AA2740D2519F8E6D4
:1009CA00601712080074082519F8A607120A7E058E
:0E09DA0019E51970E5051880E112092880C1A1
:100A79007F2A120AB07FE87E03E4FDFCC3ED9FECF8
:100A89009E5015E4FBFA0BBB00010AEB640A4A709D
:090A9900F50DBD00010C80E42202
:0E0AA2008F90C2B5C2B6D2B7120A7EC2B7227A
:0E0AB0008F90D2B5C2B6D2B7120A7EC2B7225C
:100A1B008B138A148915E4F516F517AB13AA14A9D1
:100A2B0015851782851683120A4CFF6057120AB080
:100A3B000517E51770E5051680E17F107E27020A82
:010A4B008228
:10080000E4FFFEEF4E6003020899C2A0D2A1D2A27B
:10081000D2A320B006120A797F312220B106120A33
:10082000797F322220B206120A797F3322D2A0C207
:10083000A1D2A2D2A320B006120A797F342220B11D
:1008400006120A797F352220B206120A797F3622F3
:10085000D2A0D2A1C2A2D2A320B006120A797F37B9
:100860002220B106120A797F382220B206120A79B4
:100870007F3922D2A0D2A1D2A2C2A320B006120AEE
:10088000797F2A2220B106120A797F302230B20302
:0C089000020803120A797F23227F232232
:10092800E50D65087050E50E6509704AE50F650A22
:100938007044E510650B703EE511650C7038120ABD
:100948007E7F01120AA27F81120AA27BFF7A0979AF
:10095800F9120A1B120A7ED2B3C2B47FC1120AA2CC
:100968007BFF7A0A7905120A1B7F107E27120A82FA
:10097800D2B3C2B480167F01120AA27F80120AA2E3
:100988007BFF7A0A7911120A1B120A7E7F01120A6A
:02099800A22299
:0300000002089C57
:0C089C00787FE4F6D8FD7581190208E3AE
:100A4C00BB010CE58229F582E5833AF583E022505F
:100A5C0006E92582F8E622BBFE06E92582F8E222A9
:0D0A6C00E58229F582E5833AF583E49322C3
:1008A80002099AE493A3F8E493A34003F68001F2C3
:1008B80008DFF48029E493A3F85407240CC8C33351
:1008C800C4540F4420C8834004F456800146F6DF20
:1008D800E4800B0102040810204080900ABEE47EE8
:1008E800019360BCA3FF543F30E509541FFEE49315
:1008F800A360010ECF54C025E060A840B8E493A3DC
:10090800FAE493A3F8E493A3C8C582C8CAC583CA06
:10091800F0A3C8C582C8CAC583CADFE9DEE780BEBE
:010AC600002F
:00000001FF
